:100000000C9407200C9471200C9471200C94712096
:100010000C9471200C9471200C9471200C9471201C
:100020000C9471200C9471200C9471200C9471200C
:100030000C9471200C9416230C9455230C94F320EB
:100040000C9471200C9471200C9471200C947120EC
:100050000C9471200C9471200C9471200C947120DC
:100060000C9471200C9471200C9471200C947120CC
:100070008100450027FF24FF2A902B1C210C22FB26
:10008000850084008903888D81096F0244424700FE
:100090004501B083B300B10125118A1D8B035A5568
:1000A00001200101003808000000000000000000ED
:1000B00000000000000000000000000000007C259F
:1000C0007F25DB25DF25E62587258C259125EE2557
:1000D000942597259A25D525D825FE250040889179
:1000E000D2E4ADB5B6BEBFFF0000000000000000C6
:1000F0000000000000000000000000000000000000
:1001000000000000000000000000000000000000EF
:1001100000000000000000000000000000000000DF
:1001200000000000000000000000000000000000CF
:100130005100510051005151514851485000515106
:10014000004800009AF6F6F648004852F6F6FFF628
:10015000484848F7F6F6FFF6505152F6F6F6F7F62D
:10016000A3A3A4FFFFF7F6FF0000000000000000BB
:10017000085A525B5A5B1112515A5A5A095A5A126A
:10018000F6F6F6A41209095BF6FFF6F6F6AD5B0982
:10019000FFFFF6FFF6F6F7F6F6F6FFFFF6FFF6F6C8
:1001A000FFF6F6FFF6FFFFF600000000000000007B
:1001B0005B1BAEB7B7AEB7B71313AEAFB7AFB7AF42
:1001C0001313AEB7B7B7B7B70A1265AFB7AFFFB77C
:1001D000FFF7FFB7B7AFB7AEF6F6F6AFB7B7B7B73B
:1001E000FFFFFFFFB7AFB7AF000000000000000047
:1001F000FFFFF6FFFFFFFFFFFFFFFFFFFFFFFFB760
:10020000FFFFF7FFB7FFB7B7AEFFFFFFFFB7FFB7BF
:10021000FFFFF7FFFFB7FFB7B7FFB7FFB7B7FFB7EE
:10022000B7FFB7FFB7B7B7FF00000000000000003E
:10023000B7FFB7B6B7FFFFFFB7B6BFB7FFFFB7FF50
:10024000B7BFBFB7B7FFFFB7B7B7B7B7AEFFFFFFCF
:10025000B7B7B7B7FFB7B7B7AEB7B7AFFFFFB7B767
:10026000B7B7FFFFB7B7B7BF00000000000000003E
:10027000B7FFB7B6B7B6B7B6B6B7BFB7B6B7FFB77B
:10028000B7B7BFFFB7B7B6B7B7B7BFB7BFBFB7BF8F
:10029000B7BFB7B7BFB7B7BF6E77B7BFB7BFB7778F
:1002A000B777BF6E77B777770000000000000000D7
:1002B000B7B7B6B7B6B7B7B6B6B7BFB7BFB7B6B7C3
:1002C000BFB7BFB7BFB7BFB7B7BFB7BFB777B7770E
:1002D000B7BF6F77B7776FB7B777B777776F776F46
:1002E0006E7777776E776F6F000000000000000078
:1002F000FFB7FFB7FFB7FFB7B7B7B7B7B7FFB7AE2F
:10030000BFB7B7B7B7B7B7B76E77B76EB7B7B7B747
:100310006FB7B76F6FB76FB76FB7FF6F6F6F6F6FF5
:100320006FB7B7B76F6F6F6F00000000000000007D
:10033000B7B7B7FFFFF6F6F6B7B7B7B7FFFFF7FFE8
:10034000B7B7B76F6FB7B7B7B7B7B76FB7B76FB75D
:100350006FB76F6F6F666FB76F6F6F6FB76F66B79F
:100360006F6F6F6F6FB7B7B700000000000000003D
:10037000FFAFFFF6F6F6F6F6FFFFFFF6F6F6F6F637
:10038000AFFFFFF6F6F6F6F6B7B7F6FFF5F6ADFFF8
:10039000B7B7FFACADFEF6ADB7AEFFACF5F5FFF607
:1003A000B7FFAEF6F6FEF6F6000000000000000013
:1003B000F6F6ADADADF6ADADADFFADFFADADADFE9D
:1003C000ADADADADF5FEF6ADFFADFEADADADF5FF3E
:1003D000ADFFADFEFEFEF5ADFEADADADADFEFEFE7C
:1003E000F6FEFEACF6F5F5F6000000000000000099
:1003F000F6ADF5F6FEF6F5F6ADF5ADFEF5FEF6F664
:10040000FEF6FEF6FEFEF5F6F5FEADFEF6FEFEF598
:10041000FEF6FEFEF5FEF6FEFEF5FEF5FFF5FEF637
:10042000FEF6FFFEFEF5FEFE0000000000000000EC
:10043000F6F6F6F6F6F6F6F6F6F6F6F6F6F6F6F65C
:10044000F6F6F6F6F6F6F6F6F6F6F6F6F6F6F6F64C
:10045000F5F6F6F6F6F6F6F6FEFFF5F6F6F6F6F62D
:10046000F5FFF5FFF6F6F6F60000000000000000CC
:10047000F6F6F6F6F6F6F6F6F6F6F6F6F6F6F6F61C
:10048000F6F6F6F6F6F6F6F6F6F6F6F6F6F6F6F60C
:10049000F6F6F6F6F6F6F6F6F6F6F6F6F6F6F6F6FC
:1004A000F6F6F6F6F6F6F6F6F6F6F7FFFFF6FFF6D0
:1004B000F6FFF6F7FFFFF7FFF6FFF7FFF7FFF6FF90
:1004C000FFFFFFFFF7FFFFFFAEF7FFFFAEFFF7B73E
:1004D000FFFFAEFFAEFFB7FFB7AFF7FFB7AFB7F79E
:1004E000AFF7B7AFF7B7F7B7FFF6F6F7FFF7F6FFD7
:1004F000FFFFFFFFF7FFFFFFF7FFF7FFFFF7AEFF7D
:10050000FFFFAEB7AEFFB7F7AEFFFFB7FFB7FFB75E
:10051000B7B7AFB7AFB7B7B7F7FFFFB7AEFFB7B76C
:10052000B7B7AFB7B7AFB7B7F6FFF7FFAFB7B7AF6C
:10053000F7FFFFB7B7B7B7B7B7FFAEB7B7B766B78D
:10054000B7B7FFAFB76FAFB7F7B7B7B7B76FB7B753
:10055000B7FFB7AEB7B7B7B7AFB7B7AFB7B7B7FFB4
:10056000B7B7B76FB7B7B7B7B7FFB7FFB7B7B7FF8B
:10057000B7FFB7FFB7B7B7AEB7FFB7B7B7B7B7FFF4
:10058000B7B7B6B7BFB7B7AFFFB7B7B7B7B7B7B7B4
:10059000B7B7B7B777B7B7FFB7B6B7B7B7B7B7AEED
:1005A000B7B7BF77B7B7B7B7B7AFB7FFB7B7BFB7CB
:1005B000B7B7B7B7B7B7B76FFFB7B7B777B7BF6F4B
:1005C000FFB7B7B777B76F77FFB7B7B7776F6F6F0B
:1005D000FFB7B76F6E6F776FFFFFB76FB76F6F6F54
:1005E000FFFFB76F2F272F6F7777B777BF77BF776B
:1005F00077B777776F776E77777777B777776F7724
:1006000077B777B7776F776F6FB7B7FFF7B76F6F5A
:100610006FB7B7F7FFFFB76FB7B7AEFFAFFFF7AF73
:1006200077B7AFFFB7B7B7B7B7776F776F2F6F27CA
:10063000776F776F2F6F276F6F2F6F2F6F2727675A
:10064000772F6F2F2727676F2F276F27276727673A
:100650002F2727271F676F6767AF6727672767B74A
:10066000B7AFAF676F6F67B76FB7AFB76F6F6F6FCA
:1006700067B7FFB76F6F6F6F67FFF7B76F6F6F6F1A
:100680006FFFF7B76F6F776FAFFFB7B72F6F6F6FF2
:10069000B7FFAE6F6F6F6F6FF7FFB76F6F6FB7BF5B
:1006A000AEB7AF6FB7B7B7B76F6F6F6FB76FB7B79B
:1006B0006F6FB76F6FB7B7B76F6F6F6FB7B7B7FFC2
:1006C0006FB76FB7B7B7B7FF776F77B7B7B7B7FF82
:1006D0006FB777B7B7B7B7FFB7B7B7BFFFFFB7B752
:1006E000B7FFB7FFB7B7FFB7B7FFFFF5F5F6FFF5F1
:1006F000FFB7F7FFF6F5F6F6AEFFFFF6F6FFF6F6F4
:10070000FFFFF7FEF6F5F6F6B7FFF6F6F6F6F6F6A5
:10071000F7FFF7F6F5F6F5F6FFB7FFF6F6F6F6F69D
:10072000FFFFAEF6F5F6F5F6FFADADFEADFEF6FE5B
:10073000FEADFFACADFEF5FEF6ADFEADADFEADF629
:10074000F6ADACADF5ACFEF5F6ADADACADADACAD6A
:10075000F5ADACACACADF5ACADACADADACACACF6F8
:10076000ADADA6ADA4ADA3ADFEFEF5F5FFFEF6FE64
:10077000F6FEF6FEF5FFF5FFFEF6FEFEF6FEFFF5D1
:10078000FEF5FEF5FFF5FFF5ADF5FFF5F6FEF5FF1D
:10079000FEADF5FEF5F5F6FEACF6ACADF5ADF5F655
:1007A000F5ADF5F5ADF5F6F5FFF5FEFEF6F6F6F668
:1007B000F5FFF6F5F6F6F6F6FEFEFEF6FEF6F6F6B2
:1007C000F6F6FEF6FEF5FEFEF5FEF5F6FEF6FEF694
:1007D000F6F5FEF6FEF6FEF5FEF6F6F5F5F5FFACDF
:1007E000F6F5FFF6F6FEADFEF6F6F6F6F6F6F6F6DA
:1007F000F6F6F6F6F6F6F6F6F6F6F6F6F6F6F6F699
:10080000F6F6F6F6F5F6F6F6FEF5FEF6FEF6F6F672
:10081000ADFEF6FEF6FFF6F6FEADFFF6FEFEF6F6D0
:10082000ACFEADFFFFFEF6F6F6F6F6F6F6F6F6F6D9
:10083000F6F6F6F6F6F6F6F6F6F6F5F6F6F6F6F659
:10084000F6F6F6F5F6F6F6F6F6F6F6F6F6F6F6F649
:10085000F6F6F6F6F6F6F6F6F6F6F6F6F6F6F6F638
:10086000F6F6F6F6F6F6F6F6F6F6F6F6F6F6F6F628
:10087000F6F6F6F6F6F6F6F6F6F6F6F6F6F6F6F618
:10088000F6F6F6F6F6F6F6F6F6F6F6F6F6F6F6F608
:10089000F6F6F6F6F6F6F6F6F6F6F6F6F6F6F6F6F8
:1008A000F6F6F6F6F6F6F6F6AFF7AFAFB7AFFFAF80
:1008B000AFFFAFFFAFAEAFB7AFF7B7AFF7B7AFF7B9
:1008C000AEAFAFAFAFAFB7AFF7F7F7B7AFF7AFAF09
:1008D000FFB7AFF7AFFFAFAFAFFFB7AFAFAFAFAFE0
:1008E000AFB7AFB7AFAFAFB7B7AFB7AFB7AFB7B7D8
:1008F000AFB7FFAFB7B7AFB7AFB7AFB7B7AFB7AF78
:10090000B7FFAFB7AFB7B76FAFAFB7B7AFB7AFAFAF
:10091000AFAFAFB7AFB76FAFAFAFAF6FAF66AFB798
:10092000AFAFAFAFAF6FAF6FB7B7AFB7B7B7B6B720
:10093000B7B7B7B7B7B7B7B76FB76FB7B7B7B7B7D7
:10094000AFB76FB7FFB7BFB7B7B7B7B7B7B7B7B737
:100950006FB76FB7B7B7B7BFAF6FB777B7B7B7B73F
:10096000B76FB7B7B777B777B7B7B777B7B7AFB727
:10097000BFB7B777B7B7B7FFB7B777B76FAFB7B787
:1009800077B777B777B7AFB7B7B76E776FB7B7B790
:10099000B777B7776F6FAFB7B7B76FB7776F66B720
:1009A000B77777776F6F6FAFFFFFFF6F2727676F9F
:1009B000AEFFFFFF6F27276FFFFFFFFFB76F6F27A8
:1009C000FFF7FFFFFF6F6F67B7FFFFFFFFB76F6FA7
:1009D000FFF7FFFFF6FFB727B7FFFFFFFFFFFF6738
:1009E000B7B7F6FFFFFFFF6F776FB76F6FB7B7B798
:1009F000676F6F6F6F6FB7B7272F676F6F6F6F6F0F
:100A00002F272727676767B7276F6F276F676F6F76
:100A10006F2767276F676FAF1F2727676F676FB7EE
:100A2000671F671F6F6F676FB7FFB7AF66AF6FAFB7
:100A3000AFB7AFAFB7676FFFB7B7AFB7AFB7AFFF7E
:100A4000AFB76FAFB7FFB7AF66B76FAFB7FFFFFF17
:100A50006FAF6FAFB7F7B7AF67B7676F67B7AEAFD7
:100A6000AF6F6667AFAFB7AFFFFFB7AFB7AFFFB757
:100A7000AFB7AFAFB7B7B7AFB7AF66B76FB7B7B7C7
:100A8000B767B7AF6FB76FB767676FAF6FAF6F66B7
:100A900067676F6F6F66B76F1F1F67AF6F676FB75F
:100AA0001F27276F6F6F6F6FFFFFFFFFFFF6B7B74F
:100AB000B7B7FFFFFFFFFFB7B7B7FFAEFFFFB7FF47
:100AC000B7B7B7FFB7B7B7AEB7B7AEB7FFB7B7B738
:100AD0006FB7B7B7B7B7B7B76FB7F7FFB7B7B7B7AE
:100AE0006FB7B7FFAFB7B7B7FFB7F6AEAFAEAEAD44
:100AF000B7F6F7AFAF5EA7AFFFB6AFAFAF5EAFAFC2
:100B0000F6AEAFA7AF67AFAFF6F7AFAFA7AF67AFC0
:100B1000FFF7A7A7AFAFAF66FFFFA7A7A75EAFAF6F
:100B2000AFAF5F5FA75FAF5FAEAFAFA6AEF5ADA4EF
:100B3000A7A6AFA6AFA5F7F7AFAFA7AFA7A6A6EF3B
:100B4000AFAFA7A7A7AFEFF767A75FA7A7AFA7A705
:100B5000AF675FA7AFAFA7A7AFA75FA7A7A7A79FDD
:100B6000A75FA7A7A7EFA7A7F6ACF5ADF5F5F6F633
:100B7000F6A4F5F6F6F5F5F6F7F6F6F5F6F6EDF574
:100B8000EFF6F6F6F5F6F6F6A6EDF6F5F6F6F5ED71
:100B9000F7F6F6F6F6EDF6F5F7F6F5F5F6F6F6F6FF
:100BA000F6F6F6F5F6F6F6F6F5F5F5F5F5F5FEAD2D
:100BB000F6F6F6F6F6F6F5ACF5F6F5F5ADF6F6F66C
:100BC000F5A4F6F5F6F5ADF6F6F5F5F6F6F6F5F666
:100BD000F6F5EDF5F6F6F6F5F5F6F5F6F5F6F6AD0D
:100BE000F5F6F5F6EDF5F6F5B6ADFEADFFFFFFF661
:100BF000FEADFFADFEF6FFF6FEADFFADFFFEFFF66C
:100C0000FEADFFADFFADFEF6F6F6ADFFADFEFFF6B5
:100C1000F6F5ADADADACFEF6F6F5ADACADB5ADFEF1
:100C2000F6ADACAC5BACACF6F6F6F6F6F6F6F6F670
:100C3000F6F6F6F6F6F6F6F6F6F6F6F6F6F6F6F654
:100C4000F6F6F6F6F6F6F6FFF6F6F6F6F6F6F6F63B
:100C5000F6F6F6F6F6F6F6FFF6F6F6F6F6F6F6FE23
:100C6000F6F6F6F6F6F6F6ADF6F6F6F6F6F6F6F66D
:100C7000F6F6F6F6F6F6F6F6F6F6F6F6F6F6F6F614
:100C8000F6FFF6F6F6F6F6F6FFFFF6F6F6F6F6F6E9
:100C9000FEFFF6F6F6F6F6F6F6FEF6F6F6F6F6F6DB
:100CA000ADFEF6F6F6F6F6F6AFAFAFB7B7AFAFAF4D
:100CB000AEB7AFAFB7AFB7AFB7AEB7AFB7AFB7AF0E
:100CC000FFAFFFAFAFB7AFAFF7B7AEB7B7AFB7B71D
:100CD000AEFFAFFFAFFFB7AFAFAFAFB7F7AEAFB7D6
:100CE000AFFFAFAFF7B7AFB7AFAF6FAFAF6FAFAFEC
:100CF000B7AFAFB7AFB76FAF6FB7B76FAFAF66AFE5
:100D0000B7AFB7B76F6FAF6FAF6FAFB7AFB7B7B7BB
:100D1000B7B7B7B7B7FFFFB7AFAFAFFFFFF7FFFF8B
:100D2000AFB7FFFFFFFFB7B76FB76FB7B7B7B7B7CB
:100D30006F66B777B777B777B76F6FB7B7B777B76C
:100D4000B7B76F6F776F6FB7B7B7B7B7B76EB76F24
:100D5000FFB7BFB777B777B7B7B7B7B7776F6F6F6B
:100D6000FFB7B76F6FB76F6FB76FB7776F2F67B793
:100D700077B7776F7727276F776F6F6F6F6F6727FB
:100D8000776F776F2F2F2727BFB7776F6F272727AB
:100D900077B76F6F6F27271FB777772F6F6F27276B
:100DA0006F6F6F27276F6F6FAFB7FFFFF6FFF6B755
:100DB000B7B7B7FFFFFFFFB7AFB7AFB7FFFFB76773
:100DC00067B7B7B7F7B7AF671F2766B7B7B7276774
:100DD000271F67676F6667271F1F1F6727676F27B4
:100DE000671F1F1F676F66676767671F676F6FAF54
:100DF000671F676F67B7B7B71F5F6F6F6F6FB76FAB
:100E00001F676F676F666FAF676F676F676F6F6F33
:100E10006F67676F676F676F6727676767676F677A
:100E2000276727676F676F67B7AF6FB7AFAFB767F2
:100E3000B7B7AFB7AFAFAF1FB76FB76FB76F671FBA
:100E4000B76FB7B7AF5F1F17AF6FB7B7B75F1F1FEA
:100E50006F676FAF6F67171F6F67B7AFAFAF171FC2
:100E60006F676FAF6FAF1F171F1F67676F676F6F7A
:100E70001F27676F6FAF6F671F1F27676F6FB76F92
:100E80001F1F676F6F6F6F6F1F1F27676F6F6F6F0A
:100E90001F1F6727676F6FB71F1F1F2767676F6F5A
:100EA0001F1F6727276F6F6F6F6FB7FFB7B7B7B792
:100EB0006FB7B7B7FFB7B7FF6F6FB7B7B7B7B7FFC2
:100EC000B7B76FB7B7FFAEFF6FB7B7B7B7B7FFFF2B
:100ED0006FB7B7B7FFB7FFAE6F6FB7B7FFB7FFFF1B
:100EE000B76FB7B7B7B7FFF7B7A7A75F9F5FA7679A
:100EF000B7AF5FA75F5F575FB7A75F5FA757A757FA
:100F0000AFA75F5FA7575F57B7A7565F5FA7A75702
:100F1000AFA757A7A75FA7A7F75F575FA7A75FA7C9
:100F2000AF56575F5FA75FA7A7A79FA7A7A7EFA683
:100F30005FA79FA7EFEFA7EF575F9FA7A7EFA6F7C2
:100F4000A75F9FA7EFAFEFF7A75FA7A7A7F7F7F7F1
:100F50005FA7A7AFAFF7AFF75FA75EA7F7AFF7EF52
:100F60005FA767AFA7AFAFA7F6F5F5F6F6F6F6F50C
:100F7000F6F6F5F6F5F6F6F5F6F5F6F6F5F6F5F617
:100F8000F6F6F5F6F6F5F5F6F7F7F5F5F5F6F6F506
:100F9000AFF7F6F5F5F5F5FEAFF7FFF6F6FEF5F56A
:100FA000EFAFF7FEF5F5FEF5F6F5F5F5F6F6F5A477
:100FB000F5F6F5F5F6EDF6F5F5F5F6F5F5F5F6F6E3
:100FC000F5F5F5F6F6F6F6F5F5ACF5F5ADF6A4F6AD
:100FD000F5ADF5F5ADADF6F5F5F5ADF5FEADADF666
:100FE000FEF5FEADADFEF5F5F5AD5A636363FEF6B5
:100FF000F5A4AC5A5AF5F6F6F5A4AC5A63F6F6F633
:10100000F6A4AC5BACF5F6F6F5F5AC5AACF6F6F634
:10101000A4F5A4ACACF6F6F6F5F6A3ACACF5F6F692
:10102000ADF5A4ACF5F6F6F6F6F6F6F6F7F6ADFE87
:10103000F6F6F6F6F6F6ADACF6F6F6F6F6ADAD6308
:10104000F6F6F6F6F6F65AACF6F6F6F6F6F5A4630C
:10105000F6F6F6F6F6F6A363F6F6F6F6F6F6AC5AFC
:10106000F6F6F6F6F6F6F5ACADACFFF6F6F6F6F6F5
:10107000ACACACF6F6F6F6F664ACB5F5F6F5ADF656
:101080006363ACADADF5F6F65B5AACACA4F6F6F620
:10109000ACACA4ADF5F6F6F65BACA3F5EDF6F6F662
:1010A000ACF6F6F5F6F6F6F6AFAFFFAFAFFFAFAFC3
:1010B000AEB7B7B7AFB7B7FFAFF7AFAFFFAFAEFFE2
:1010C000B7AFB7AFB7AFFFF6AFAEAFAFAFAEFFFFE3
:1010D000AFAFB7AFB7F7FFF6F7AFAFB7AFFFFFFFF1
:1010E000AFB7AFFFAEFFFFF7B7F7FFFFF7FFFFB7F1
:1010F000F7FFF6FFFFB7FFB7FFFFF7FFFFFFB7B739
:10110000FFFFFFFFB7B7B7FFF7FFF7FFFFFFB7F727
:10111000F6FFFFAEB7FFFFAEFFF7FFFFFFB7FFF72A
:10112000FFFFFFB7B7F7B7F7B7FFB7B7B7B76F6648
:10113000B7FFB7FFB7AFB7B7FFB7F7B7B7B7FFFF9F
:10114000F7FFB7B7AFB7F7FFFFAFB7B7B7B7FFB79F
:10115000FFB7B7AFB7FFB7B7B7AFB7AFFFB7B7B75F
:10116000B7B7AEB7B7B7AF276767B7AFB7B7B7B758
:10117000AFFFFFFFAEB7B7B7F7FFF7FFAFB76F67C8
:10118000AEFFB7B76F6F676FB7B7B76F6F6F276790
:101190006F67175F1F5F171767170F171F1F1F173F
:1011A00017170F171F1F670FB76F6F67AF6F676F47
:1011B0006F6F6F6FAF6F676F6F67676F676F67672F
:1011C0006F276F676727671F6F6F67271F1F1F676F
:1011D0001F170E06175F1F67060F0605060F0E0E78
:1011E0000F0E0506060605041F276727676F676F42
:1011F000671F271F276727671F1F5F1F1F671606A9
:101200001717171F1F6767675F5F1F5FAFB7B7B716
:101210006F6767AFAEFFAFB75656AFFFAFF7B7FF19
:10122000040556FFFFAFB7AF676FB76FAF675F17C4
:1012300067B7AFAF6F67AF1767AFB7AF67AF5E178F
:1012400067AFB7B7AF67675F66B7B7AF67AF5F67DF
:1012500067B7675FAFAFAF5FAFB75F0F17AFAF678E
:10126000B7670F0F0F17AF5E1F1F1F276727676F27
:101270001F1F1F1F276F6F6F1F1F1F67276F676F4E
:101280005F1F1F1F1F676F6F675F1F2767276767D6
:10129000AF5F1F1F67276F6FAF671F27676F676F8E
:1012A000AF675F27676FAF676FB7B7B7AEB7B7F70F
:1012B0006FB76FB7AFFFFFAF6FB7B7B7AFAFFFAFE6
:1012C0006F6FB7B7B7F7AFA76F6FB7AFAFAFF79F96
:1012D000AF6FB7B7AFAFA7576F6F6FAFAFAFA757CE
:1012E000B766B7AFAFA75F57AF9F575F5E575F5FF8
:1012F0009F4F5F5F5F5F575F9F4F575FA7575F5F6E
:101300005757575F575F5757575757A757A7575FB5
:10131000575757575757575F4F575757A757565F06
:1013200007574F9F5757575F5F5FA767A7A7A7A7A5
:101330005FA75F5E5F5F5F575F5F67A75E5F57573F
:101340005F5FA75F5F5F57575F5F5F5F5F175757CD
:101350005F5F675F5F57574F5F675F5F570F574F1D
:10136000A75F5F5F570F4F4FA7A6F7F5FEF5F6FE95
:101370009FA7F7ADFEF5FEF5A7AFF6FEF5ACF5F5C8
:1013800056A7F6ACFEF5FEFE56F7ADF5FEF5ADF64A
:10139000A7F7FFACF5FEF5FEA7AEFFF6ACACF5FF88
:1013A000A7F7FFFFF5FEF5ADF5F5FEF6ADADACF533
:1013B000FEF5ADFEADF5ACF6FEF5FEF6ADF5ACF521
:1013C000F5B6ADFEF5ACF5ACFEADFEADFEF5ACF59B
:1013D000ADFFF5ADFEF5ACFEADADFEACF5F5ACF593
:1013E000ADFEACF5ACF5F5F5F5F5ADACF5F5F6F60D
:1013F000ACF5ACADF5F6F5F6F6F5F5ADFEF6F6F6B0
:10140000F5F6ACF6ADF5F5F5F5ADF5ADF5ADFEF6E9
:10141000F5F5ACF6ADF6F5FEACF5F6F5ADADADF621
:10142000ADF5ADADF5F5ACF5F6F6F6F6F6F6A4AC21
:10143000F6F6F6F6F6F6F5ADF6F6F6F6F6F6F6ACE0
:10144000F6F6F6F6F6F5F5ADF5F5F6F6F6F6F6F58A
:10145000F5FEF6F5F6F6F6F6FEF5F5F6F6F6F5F621
:10146000F5F5FEF5F6F6F6F6ACA4F5F6F6F6F6F6B4
:10147000F5F6F5F6F6F6F6F6F5F6EDF6F6F6F6F618
:10148000F6F5F6F6F6F6F6F6F6F6F6F6F6F6F6F6FD
:10149000F5F6F6F6F6F6F6F6F6F6F6F6F6F6F6F6ED
:1014A000F6F6F6F6F6F6F6F6AFAFAFB7AEFFFFFF1D
:1014B000AEAFAFF7B7F7FFF7AFB7AFAFF7FFFFAE1E
:1014C000AFAFAFAFFFFFB7FFAFAFAFAFAFFFAFFF94
:1014D000AFAFAFAFB7F7B7F7AFAFAFAFAFB7AFFF24
:1014E000AEAFAFAFFFAFFFAFFFB7F7FFB7B7AEB766
:1014F000FFB7FFB7B7AFFFAFFFB7B7FFB7AFB7AF34
:10150000AEFFB7B7B7AFAFAFB7FFFFB7B7B7AFAFC4
:10151000B7AEB7FFB7AFAFAFB7FFB7B7AFB7676794
:10152000FFAFFFB7B7AF6767F7B7F7AFB7B76F1FD3
:10153000B7AFAFB7B76F671FFFAFAFAFB76F675F3B
:10154000AFAFAFB7B766671FB7AFB7F7B7B7671734
:10155000AFAFB7AFB7B7671767676767AFB7AF5FCB
:10156000675F5F6767B7AF1F170F17171F1F6717F3
:1015700017070F175F2767170F0F0F0F1F1F670E34
:101580000F0F0F0F17675F170F0F0F0F171F670F43
:101590000F0F060F175F675F0F0F0F0F171F67679C
:1015A0000F0F170F175F67670F0F0505060E05046E
:1015B0000606060606050505060F06065706050477
:1015C00006060F06060606050F5F0F0606060E0640
:1015D0005F671706060606065F5F671706060E06B4
:1015E00067175FAF675706060404055FAFB7F7AF2D
:1015F000050504565EAFFFAF0606060E57AFAFAF48
:10160000060606060757AF66050606060F0F57675C
:101610000606060F0F070F0F0F060606060F0F0F21
:1016200006070F0606060F0FFF5F170F0F0F5FA7C6
:10163000F7A75F070F0F0F17AFAE5F0F071717174B
:10164000AFAFA71707171717AF675F0F0F1717175A
:101650005F5F171717175F1F0F1717171717175FFA
:101660000F070F1717171F1FAF5F5F676667B7AFCB
:101670005F5F676FAFB7AFAF1F67AF6F6FAFB7B7E2
:10168000676767AFAFAFAFB7676766676FAFAFB793
:101690006767AF6FAF67AFAF67676767676667AF6B
:1016A0006767676767676767AFB76FAFAFA757577A
:1016B000AFAFB7AFAFA75757AFB7AF66A6A7570F34
:1016C000AFF7B7AF5DA75657AFAFB7AFAEA7575796
:1016D000B7AEAFAFAEA7A75FAFAFAF66AE5EA7A71F
:1016E000AF6FAFAEAEA7A75F574F57579F5F575F1C
:1016F00057574E57575F5F5F57579F9F57A75F5F7B
:10170000575757575F5F575F5757A79F57A75F5F59
:10171000579F575F5F5757A75F9F57A75756575F0A
:10172000565F57A7575756565F675F5F57574F4FDC
:101730005F5F5F570F4F0F465E5F5F57574F4F47D3
:101740005E5F5F570F4F57475E5F5F5757074F47C3
:101750005E5E5F5757474F475D5E5F570F4747478E
:101760005D5D5F574F4F47979FF7F7AEF6ACFFAD04
:101770009FEFF7FFF7F5ADAD9FEFF7F7FFF6FFAD82
:101780009F9EEFA6F7AEADAD9FA7A7EFF7F7ADAD64
:101790009FEFA7A7AFF7AEAD9FA7A7A7AFAEADB717
:1017A0009F9FA7A7F7AEAE65ADADF5ADF5ACACF5B7
:1017B000ADACF5ACF5F5ACF5ADACF5A4F5ACA4F578
:1017C000FEACF5F5ADF5A4ACADF5ADF5F5F6F5A4CB
:1017D000ADADF6F5F5F5ADF5AEADF5ADF5F6F5F566
:1017E000ADADF5F5F5F5F6F5F5ACF5F6ADADF6AD57
:1017F000ACF6ADADF6ADF5F5A3ACF5A4F6ADF5AD33
:10180000F5A4ADADF6ADF5ADF5A4F5F6A4ADF5AD29
:10181000ADF5F6F6F6ADACACA4F6A4F6ADADADA460
:10182000F6F5F6ADADAC63ACADF5F5F5F6F6F6F65E
:10183000F5ADF5FFF5ADADF5F5F5ADF5ADF6ADAD45
:10184000ACF5ADF5ADADADADF5ACADADADADADADF2
:10185000ACACADADADADADADACACACADADADADADBD
:101860006363ADADADADADADF5F6F6F6F6F6F6F6F5
:10187000ADF5F5F6F6F6A4F6F5ADADADA4F6A4F625
:10188000ADA4F6A4F6A5A4A4ADADA5ADA5A4A4A44D
:10189000ADF5A4ADA4A4F5A4ADADF6F6A4A4A4A49E
:1018A000A4ADA4A4F6F5A3F5F5AEAFAFAEAFAFAF60
:1018B000F5F5ADAFAFF7B7FFF5F5F5F6AFAFAFAFF5
:1018C000F5A3F5A5AFAFAFFFA45CA65CF7AEF7B785
:1018D000AD5C5BADAFFFFFAEF5F5F5F5AEF7FFB76D
:1018E000F5A4ACACAEAFF7AFAFB7AFFFB7B7AF676C
:1018F000AFB7AEB7AFB7666FAFF7B7FFB7AFAFAFC2
:10190000AFB7AFB7AFB7AF67FFFFAFFFB7AFB7AE18
:10191000F7B7B7AFB7AFAFAFFFF7AEAFB7AFB7AFD0
:10192000FFAFB7AFAFAFAFAF6717A7671FAFAF5F7F
:10193000675F675F6767B70F676767676767AF5F0F
:10194000AFAF67675F67AF17AFAF67675F67B75FD7
:10195000AFAF676717AFAF5FAF67675F16AFB75FD0
:10196000AF6767675FAF675F0F1F5F170F171FAF27
:101970000F5F1F5F17175F67070F1F67170F67AFAF
:101980000F0F0F5F1F175FAF0F060F0F5F6767AF78
:101990000F0F0F0F0F6767AF0F060F060667AF66D3
:1019A0000F0F070F5767AF675E1F175FAFAFAF67C8
:1019B000675F171F67AFAFAF5F1717171F1FAFAF77
:1019C00067171F5F1F1F1FAF5F5F1F175F1F5F1F1F
:1019D0001F17175F1F1F5F675F170F1F5F1F1E1FF8
:1019E000675F170F171F5F675F0F0F0F0F07060F58
:1019F000AF5F170F0F0F070FAFB7AF67570F0F0F7F
:101A0000AFB7AFAFAF0E0F0F67676767AFAF570FD7
:101A10005F67676667B7AF176767676F67AFB75E80
:101A2000676767AF67AFAFB70F0F1717171F5F1F56
:101A30000F0F175F171F671F0F17171F1F676767A6
:101A40001717171F1F1F276F1717171F5F1F276FE6
:101A500017175F672767276717171F1F6727671FF6
:101A60006717171F6767271767676767676767677E
:101A70006F6F671F2767276767271F2727676F66AF
:101A8000671F1F67676F6FAF671F2727676F67B78E
:101A90001F1F67676F676FB7171F27676F67B7AF3E
:101AA000171F67276F6FB7B767B7B75DAEAFA7A749
:101AB000AFB7AFAF5CAF5E5FB7AFAF5DAEAFA757CD
:101AC000B76666AF5CA65E57AFB766665CAFA757F2
:101AD000B7AFAF665C5D555FB7B766AF5C5CA757E5
:101AE000AF6F6F665D5C5556579F575F9F57575E48
:101AF0009F5F9F57574E4E55579F579F4F57565D65
:101B00005756579F4F9F560A579F579F464E5513FC
:101B1000575757474797540A579F4F4F464D545B67
:101B20004F4F4F4F4F4D020A5C5D5F175747469727
:101B3000135D5E5F4F4F9747125D5E5F574F47974C
:101B40005B135E1F5F4F4F475B135D5F574F4F4700
:101B5000125B145F5F4F464F0A125C0C56064E4FE5
:101B600009125314560546059F9F56A7F7AEB6AE09
:101B70004E5FA7A7AFA5ADAD4757A7A7AFAEADAD19
:101B800047575FA7AEADACFE57575FA75CA4F6AC56
:101B900057175F5DAEADF5FE575F5E5CADADACF562
:101BA000165E5DAE5BFEF6FEACFEACACF5ADF5F6DA
:101BB000FEACFEF5ADF5F5ADF5F5ACFEF5F5F5F5DC
:101BC000FEF5FEF5ADF5ADF5F5F6FEF5FEF5F5F530
:101BD000F5FEF5FEF5F5ADF5F5FEF5F5FEF5F5F5D9
:101BE000F5F6FEF5FEF5FEF5F5F6F5ADAD6364AC84
:101BF000F5ADF5F5AD63ACACF5F6F5ADB56364AC3C
:101C0000ACF5ADF564B5ACACF5F5ADB5ACACACAC24
:101C1000ACACACAD64B5ADF5F5F5F5ACACACADAC1C
:101C2000F5ADF5ADADACACAC63AC64AD64ADADA43D
:101C30006364ADADADADADADACACB664ADADADACAA
:101C4000ADACADADADADACA4ADF5ADF5ADF5ACA302
:101C5000F5F5ADF5ADACA4F5ADF5F5F5F5F5A3AC41
:101C6000F5ADF5ADA3F5A3F5ADF6ADA4F5A4F6A4D9
:101C7000A4ACA4F5A3F5A4F5F5A3F5F5F5A4F5A496
:101C8000A3F5ACA4F5F5A4F5ACA3F5A3F5F5A4F57F
:101C9000A3F5A3F5F5A3F5F5A4ACA3A4ACF5A4F5C1
:101CA000A3A3F5A3F5A3F5F5A3A3F5ACADAFF7AFEB
:101CB000ECACA3ACADAFF7AFA4A3ACA2A365AFAF40
:101CC000AD5AA3AC5A5BAFAFA352A3A35A5BAFF715
:101CD000A35A5A51A45BA6AF5A515A505BA4AFAF56
:101CE0005A50510852A4AFAFF7AFFFAFB7AFAFAF85
:101CF000AFAFAFF7AFAFAFAFF7AEAFAFAFAFAFAF65
:101D0000AFF7AFAFAFAF5E5FAFAFAFAFAFAFAF5E8D
:101D1000AFF7AFAFAFAFA767A7AFA7AFAFAFAFAFEB
:101D2000AFAFAFAFAFAFAF5FAF6767675FF76716D4
:101D3000A7675F67AFAF675FAFAF5EA7AFB75F176C
:101D4000AF5F5FAFAFAF1F0FAF675FAFAF5F17178B
:101D50005F675F67AF175F175F5F5F1F17175F1FD3
:101D60005F1F5F171F1F5F5F0F0F06075FAFB7AFE4
:101D70000F0F060F67AFAFB70F0F0F5FAFAFFFFFCC
:101D800017170F5F66AFB7F75F1717676767AFFF84
:101D90001F5F1767AF6767B75F1F5F67676F67672B
:101DA0001F5F1F67AF666F6F6FAF5F17170F1F1F44
:101DB000AFB7AF17170F0F17B7F7FF5E1717170F4C
:101DC000B7FFAFB75F17170FF7B7B7FFAF675F176B
:101DD000F7FFFFB7B7AF671FAFFFF7FFFFB7AF67FB
:101DE00067B7AEFFFFAEB7AF6767676FAF6FAFB7ED
:101DF0006767676FAF6FAFB71F676F666FAFB7AFDC
:101E00000F0F0F67AF6FAF6F0F0F0F076767B7B792
:101E1000170F0F0F171F67AF67170F171717171F2A
:101E200067671717175F1717AF6717176766671783
:101E3000AFB75F1F676F671FAFB7AF5F676F67674A
:101E4000B7B7B7675F67676FAFAFB7B767675F670A
:101E5000B7AFB7FF675EA76767B7AFB7AF6767672B
:101E60005F6767AFAF5F67AF17171F676F67B76FC2
:101E70001F1F1F6766B7AFB75F1F6767676FB7AF93
:101E8000676767276F6F6FB767676F67AFAF6FB7CA
:101E9000AF6FAF6FB7B7B7B7676FAF6FAFB7B7FF1A
:101EA000AFB7AFB7B7AFB7FFB7AF6FAF5D5354556D
:101EB0006FB76FAF665D0A4C6FB76FB7665D530261
:101EC000B7B76FB7AF675453B7B7B7B7B7B76653BE
:101ED000B7FFB7B7B7AEAF5DB7F7FFFFFFB7B7AEA6
:101EE000FFFFF7FFFFFFF7B74E4F054F054D0A09FC
:101EF000044E4E054E030A094D044E044D020909D5
:101F000003040404020152095354034C010100006C
:101F1000540A0A0201000000665D540149000000F5
:101F2000B7AF6653000000000A120A545605465621
:101F30005B09090A55044E040A120909540456554E
:101F40000909090953550354010000090954535361
:101F5000000000510109535B0000000051525B5B1F
:101F60000000005251AC645B5F5E5C5BADB5B6FED9
:101F7000155C5CACADADADAD135C5BACACFEF5FE21
:101F80000A5B64ACADB5F6FE5B5B5BACADB5ADF5C5
:101F90005B5BAC64ACACFEAD125B5BACACADFEFEAF
:101FA0005B5AACADACADFEADF5FEF5FEF5F5F5F565
:101FB000FFF6F5ADFEF5FEF5ADB6ADFEF5ADF5FF00
:101FC000F6ADB7AEF5FEF5F5FEACADAFAEADFEF5D8
:101FD000F5F5FEADA6F6ADF5F5FEF5F5FEAEF5F5BB
:101FE000F5ACFEF5F5F5FEADF5F5F5F5ADF5ADADF8
:101FF000F5F5ADF5F5ACF5ACF5F5F4F6F5F5F5ADB3
:10200000ADF5F5F5F5ADF5A3F5F5ADF5F5F5F5F5AA
:10201000FEF5F5F5F5ACF6A3F5F5ACF5F5F5F5F54A
:10202000F5F5F5F6F5F5ACF5F5A4F5F5ACF5ACF48C
:10203000ACACF5A4F5A3F5A3F5ACACF5ACF5ACF5FB
:10204000ACADACF5ACF5A3ACF5ACACA3ACF5ACF574
:10205000F5A3F5ACACF5ACA3ACF5ACF5ACACF5AC1C
:10206000F5F5ACF5ACF5ACF4A3ACA3A3ACF5A3F5D6
:10207000ACA3F4A3ACA4F5F5A3ACA3A3F5A3ACF572
:10208000A3ACA3ACACA3F5ACACA3ACA3F5A3ACF5EB
:10209000ACF5A3F5ACF5ACA3A3ACF5A3F5ACF5F5A5
:1020A000F5ACA3F5F5A4ACAC5251085152F7AFAF63
:1020B0005A51000000A4AFAFA350505000525DAF82
:1020C000525A505A505BA7AF5AA3A3A3A35A5DAF6D
:1020D000A3A3F5A3A3A35C5DACA3F5F5A3A3535DF4
:1020E000A3F5A3F5F5A3525DAFAFAFAFAFAFAF6749
:1020F000A7AFAFF7AFAFA767AFA7AFAFAFAFAF6750
:10210000AF5E5EA7AFAFA7AFAFAF66A767AFAFAF2A
:10211000AFA75E67AFA7AFAFAFAFAF5E5E67AFAF62
:102120005D5EA6AF5EAFAF5E5F671F5F5F1F675FFD
:102130005E676767671F5F67AF5FAF676767675F08
:1021400067AF5F675F676767AFAFAF675F675E6720
:1021500067AF67A7675F6767AF67AF5E675F5F5F20
:10216000AF675E675E5F1516675F5F67AFAFAF6FA4
:102170001F1F1F5F67AFB7AF675F171F5FAFAFAFBF
:102180005F67161F171667AF5F1F165F16570E5F44
:102190005F16165F16161657165F16160E0D1616D4
:1021A0001605050D5F5F0D5F676766FFF7FFFFB7F9
:1021B0006FAF6F67FFFFAFFF6FAF6F6767AFFFFF77
:1021C000B7AFAF666F6767AFB7B7FFFFB7AFB7AF70
:1021D0005FAFAFFFF7FFFFFF160E5FAFB7AEFFAE0B
:1021E00016160E0E5FAFAFB7AF675F17171F5F1FF3
:1021F000AFAF671717171F5FB7AFAF1F5F1F171F6F
:10220000AFB7676767671F5FB7AFAFAF66676767EF
:10221000FFFFB7AFB7AFAF6FF7FFF7FFB7FFB7AFCE
:10222000FFFFAFAFB7F7FFB7175F67AF675F6767CE
:102230001F171F675F676767171F5F1F67671F6746
:10224000171F5F1F67676767675F176767AFAFB77E
:10225000AF665F17176767AFB7AFB75F171F671F27
:10226000B7B7FF675F675F676FAFB7B7B76FAF6647
:10227000AFB7AFB7AFAF6F6F676F6767676FAFB776
:1022800067676F6F67B76FB7AF66AFAFAF6FAFB767
:10229000B7AFB7AFB7AFB7B76767676F676767AF16
:1022A0006767676767AFB7B7FFAEFFFFAEFFFFAE09
:1022B000AFFFF7F7FFFFB7AFB7B7FFAEAFB7AFB737
:1022C00066B7FFAF67AFB7AFB7AFAF666FAFB7B7C0
:1022D000B7B7AF67AFB7AFB7FFB7B7AFAFAFB7FF7E
:1022E000B7F7AF6FAFB7AFB7B7B7AF5C00000000DD
:1022F000FFF7FFA500480000FFFFF7A551004800C9
:10230000F6F6AEA500000048B7FFFFF75248000000
:10231000FFAEFFAE53510048B7FFF7FFF600500085
:10232000F7FFFFF7AE52080000000009A35B5C1244
:1023300000005151A3AE5C5B0000525AA4AD5B5A41
:1023400000005152AD5B5B5B00005151AC5B5B091F
:102350000000515A5B5B5B090000515A5B5A5B09F4
:102360005000505A5B0900005B5B5BACADACFEAD4E
:102370005B5AACADACFEFEFE125B63ADACADFEAD28
:102380005A5A5AACF5ADB5FE521163ADACF5ADB5C8
:10239000085A5A63ADF5F6AC51096363A3ADADAC11
:1023A000005063635A5BACACFEF5F5FEFEF5F5FE3E
:1023B000ADF5F5F5ACFEF5ACFEACFEF5F5F5FEF5CC
:1023C000ADF5ADF5ADF5ACF5ADACF5FEF5FEF5F55D
:1023D000FEACACF5ACF5ACFEADACF5ADF5ADF5F5E0
:1023E000ACACACACF5FEF5ACF5ACF5F5ADF5F5ED9A
:1023F000F5F5F5F5F5F5ACF5FEACF5F5ACF5F5F55F
:10240000ADF5F5F5F5ADF5A4F5ADF6ACF5F5F5AC36
:10241000F5F5F5F5ACF5F5F5ACACFEF5F5F5ACF587
:10242000F5F5F5ADF5F5ACF5ACF5F5F5A3ACA4AC6B
:10243000F5ACA4ACF5ACF5F5F5F5F5F5A3ACACA3AE
:10244000F5F5ACF5ACA3ACF5F5F5F5ACF5A3ACA39F
:10245000ADF5A3F5ACA3A3F5F5F5F5ADA3ACA3A33A
:10246000ACACA3F5A3A3A3ACACF5A4F5ACF5F5A374
:10247000ACACACF5A3ADACF5F5ACF5ACF5ACA3AC40
:10248000A3ACA3ACA3ACA3ACACA3ACF5A3ACA3A38B
:10249000ACA3ACA3ACA4ACA3F5A3ACF5A3A3ACA331
:1024A000A4F5A3A3F5A3A3A3A3F5A3ECACA3520A9D
:1024B000A3A4F5ECA3F4A352A3A3A4F5A3A35A5297
:1024C000A3F5ECF5ECA3A351A3A3ECA4F5A3A3A35C
:1024D000A3A3F5ECA4F5A3A3A3A3A3ECA3F5A3A343
:1024E000A3A3A3A3A3A4A3A3AF5EA65E5E5E675E41
:1024F000545DAFAFA75E5E67535E5EAFAFA75E5E33
:10250000520B5D5EAF5E5E5E5152555EAFAFA75E31
:10251000A3000AA7AF5D5E5E5A510054AFA75E5E8E
:10252000A35A080A5D5E5E5EAFAFAF5E675F165688
:10253000A7675E675E5F05055F5F5F5615560D0412
:102540005E5E5E5E155604055E155F15560D0D56F2
:102550005F5F5E5E5E560D560D560D5E5E5F0D5FF3
:102560005F5F5E5E5E5E56560505050D16155F16CD
:102570000505050D5F155F15055605055F155E150B
:102580000505050D0D5E5F5E0505050D0D1E5E154D
:102590000D5605560D5E5E5E0D570D0D561E5E679F
:1025A0000D560D570D155E5E5F165F0E0E0E5F0E1B
:1025B00016161616160E5F0E5F5E1657160E0E5F77
:1025C000151615160D1616065F155F155F160D16F6
:1025D0005E155F15160D5F0D5E5E155E155F150DC0
:1025E000675E5F155E155F155F675F1F5FAFB7F7CB
:1025F00016171F671F1F67AF161F5F1F675F67678D
:102600000E0E5F67671F6767160E16671F675F67A7
:10261000160E16165F676767155F0D16155F6767FD
:102620005E150D5F0D165F67FFAFFFAF67676767EA
:10263000FFF7FFF7AFAFB7AFAFAEFFFFB7AFAFFF7B
:1026400067AFFFF7AFB7B7AF6767AFB7AFAFAFB7BA
:102650005F67AFAFAFAEAFAF675F67AFFFFFAFAF63
:102660005F675F67AFAFAFAFAF67AF6FAFB7AFFFDA
:10267000B7AFB7B7B7B7FFB7AFB7B7F7B7AFFFFFEA
:10268000FFB7FFFFFFFFB7F7AEAFFFF7B7AEFFFF34
:10269000FFAFFFB7FFFFF7FFAFB7F7AEFFFFF6F7EC
:1026A000AEAFAFB7F7B7FFFFFFFFFF67AFAFB7B78B
:1026B000F7FFAF67AFAFB7F7FFFFAFAF67AFAFB72A
:1026C000FFF7AFAFAFAFAFAEFFFFAFAFAFAFAFAEE4
:1026D000FFAF66AFAF5E5FF7B7AFAFAFAFAFA767A4
:1026E000AFAFAFAF67AF67A7FFF7FFF6FFA450002C
:1026F000FFFFF7F6F6F65A08F7FFF6F7FFF6A4081D
:10270000F6F7FFF6F6F7AD08FFF6FFFFFFF6AD119F
:10271000FFAFFFFFF6FFAD5AAFAFFFF6F6F75C5B1A
:10272000AFAFF7FFF6FFAD5B08085AAC5B0951008D
:1027300008515AA35A080008085A5AA35A510800C7
:102740005A635AA35A5A08505A63ACA3A3A35A080F
:102750001A64AC5AA3AC5B525B64ACA3A3A45B52F7
:1027600063645BACA3F65B5200081A631A5263B54C
:102770000050115A115A6363005108080859635AEE
:102780000008000851085A630850085108595AAC0B
:102790000851085A63AC5A635A515A5AACAC5A633E
:1027A000095A515BACACA3635BACACACACF5ACF51B
:1027B000AC5AACACACACF5F6AC63AC5BACACACACB2
:1027C0005A63AB5AACACACAC5AAC635B5A5BA3ACCF
:1027D000AC5AAC5BACA3A4ACAC63AC5A635BA3A334
:1027E0005B635BAC5AACA3A4ACFEACF5ADF5F5F500
:1027F000F5F5F5F5F5F5ADF5F5ACF5ADF5ACF5F5AB
:10280000F5ACF5F5F5ACF5ADF5ACACACACF5ACAC08
:10281000ACACACACACACACACACACACACACACA3AC01
:10282000A363AC63AB5BA3A3F5F5ACA3ACA3A3A379
:10283000ACF5A3A35AA35AA3F5ADACA351A3A3A38C
:10284000F5A3ACA35AA351A3F5ACA35AA35A5A5A61
:10285000A3A4A3A35A51A251A3ACA3A3A35A5A5A07
:10286000A3A3A3A3A3A3A3A3A3A3F5A4F5A4ACA389
:10287000A3F5A3ACA3F5A4A3A3A3A4F5A3F5F5A383
:10288000A3A3A3ECA4F5A3F5A3A3A4A3ECA4F5A38D
:10289000A3A3A3F5A3F5A3F55AA3A3A3F5A4F5A3B6
:1028A000A2A3A3A4F5A3A4F4A3A2A3A3A3A3A35A9E
:1028B000A3A3A3A3A3AC5A635A595A5A595A6262A2
:1028C0005A59591A191A1A6259105A11621059593B
:1028D0005A111159115A5A5A5A5A115A5A5A505A87
:1028E0005A5A5A5A515A5051625A0800545E5E5E02
:1028F00063115A08005D5EA71A62625A08005DAF54
:10290000631A635A115154AF59625A625A08525DA0
:102910005A595A5A5A5A08535A505A59505A5A08D8
:1029200059505A505A50A2A266A75E5E5F5E5F562B
:10293000AFAFA7A75F5E5E5FA7A6AFA7A75EA75EC4
:10294000A6AFA6AFA7A75EA7A6AFF7AFAFA7AFA7E3
:10295000A6A6A6A6F7AFA7AF5CA6AFEFAFF7A6F700
:102960005AA5A6F7AFA6AFEF5F5F560D570D675D8F
:10297000565F0D5F0D565E665E565E565F0D5E5E7F
:102980005F5F5E5F0D0D5F5EA75F565E5F560D5E1B
:10299000A7AF5E5F56155F0DAFA7A75E5F5E560CD3
:1029A000F7AFA7A75E5F56155E665E675E5E1E5E4A
:1029B0005E5D5E665E5E1567AF665E665E665E1550
:1029C00066A7AF66AF5EAF66665DAF5EAF66AFAF80
:1029D0005EAFAF5DAFAFAF665E5DAFAFAFAFAFAF96
:1029E0005C5D5DAE5DAFAFAF5E5E5E56160D5E5F69
:1029F0005E5E15155E16155E5E67665E675E150D9A
:102A00005E66AF5EAFAF665EAFAF66AF66AFAF5E3E
:102A1000AFAFAFAF66AF5E66AFAFAFAFAFAF5DA703
:102A2000AF66AFAF5D665D0C5E5F67AF67AFAFAFC0
:102A30005E5E5F5E67AF67AF160D155F5F5E675FD7
:102A40005E5F155E5E5F5E5F5E5E5E5E155E5E662D
:102A50005D5E0C5E15155E5E5E0C5503540C0C1528
:102A6000550A53090809540CAFAFAFAFF7AFAEAF7B
:102A7000AFAFAFF7AFFFFFB7AF5EAFAFAFFFFFAF27
:102A8000675EAFAFB7AEAE5B5E6667AFAFAE5BA47F
:102A90005E665E66665C12AC155E5E5E1413116364
:102AA0000C0C150201526364AFAFAFAFAFAF5E5C09
:102AB000AFAFAFAFAFAF645BAEAEAFAFAF655CAD66
:102AC000ACADADAE5B65ADAD5BA4ADAD64AD64ADBD
:102AD000AC64AD5BADADADAD5BAC64AD64AD64ADF0
:102AE000646464AD64ADACF5ADADADF6F6F5F6A4D9
:102AF000A4ADF5F5ADADF5A5ACA4ADADADADF55B53
:102B0000ADADACACF5F5ADADADADADADACADF55C71
:102B10005BADF5ADACAD5C5BADACADAD5C635B5CD2
:102B2000AD6464AC5A5A5A5C5B64A3ACA3AC525A11
:102B300064ADADF5F5F5A45A5CADADF5F5ADA35AB0
:102B40006464ADADA4A35B5A5C64645A5A5A5B5A80
:102B500065AE5B5A5B5A5A525C655B5A5A5B5A5B6C
:102B60005CAD5B635AAC5B5B08501152ACA3AC5AD2
:102B7000095A085A63A35BAC0859115A635AA35BFC
:102B80000811595A5AA35B5A5A111A5A5AACA3A39C
:102B9000125A63A4A35B5A5B5B63645BA35AA3A34F
:102BA0005B645BA3515B5A5BAC635A5B5A5BACA33F
:102BB0005A5B5A5B5A5A5BACAC5B5A5A5AA35AA33B
:102BC0005A5A5A5A5A5A5AA35B5B5A52A351A35A99
:102BD0005AA3515AA35AA25A5B525BA35AA35AA2B0
:102BE000A25AA3A3A35AA3A3A3A35AAC5AAC5AA311
:102BF000A35AAC5AAC5AA3525AA3A351A35AA351F5
:102C0000A35AA3A3A39BA49AA3A3A3A4A3A3A3A3EC
:102C1000A351A3A25AA352515AA35AA351A351A3F9
:102C20005AA351A35A51A3A3A3A3A3A4A3A3A35AF2
:102C3000A3A3A3A3ECA4A3A3A3A3ECA3ECA4ECF5EC
:102C4000A352A3A3ECF5A4F5A3A3A3F5A3F5A3F5C1
:102C500051A3A3ECA3F5ECF552A3A3A4F5A4ECF5C2
:102C6000A3A3A3ECF5F5A4F5A3ACA3F5A3F5ACA33E
:102C7000A3A3F5A3F5A3A3ACA3F5A3F5ACF5ACA36F
:102C8000F5A4F5F5A4A3F5ACECF5A4F5F5A3ACA378
:102C9000A4F5F5A3F5A3ACA3A3F5ECF5F5A3F5A373
:102CA000F5A4F5A3F5A3F5A35B5B515A515151511E
:102CB0005B52A352515251515A5B5B525A5151517E
:102CC000A4A352A3525A51A3A35BA351A3A35AA3F3
:102CD00051A351A3A3515A5AA351A35A515A595A15
:102CE000A3505159505A50505A505A5A505A51A301
:102CF00051A351A2515A505AA251A3A3A3515151C9
:102D000051A35A51A35AA35951A3A3515A51515AED
:102D1000515A505AA25A5A5A5A595AA25AA2A2A3BE
:102D20005AA25AA252A35A5A5A5A5CEFF7F7F7AF6F
:102D3000A35151A5A6F7EFF7A3085152F7AEF7A696
:102D400051A30800A5F7A6535151515151A6A549C9
:102D5000595A5A525A000951A2A35A5A5A515A5A08
:102D60005A5A595A5AAC5B5AF7F7AFAF5E5E5E5487
:102D7000F7A6A6A75E5E565C9D54A6A6A75E5EA4B7
:102D80000000545D5D555D5B0000014B02535251E4
:102D900052515B0951A3515A5B095151A3A3A35A44
:102DA000515248A3A39A525AF6A35D5DAFAEAFAF9E
:102DB000A45AAC5D5D66AFAF5AA3A3A35B5DAF65DC
:102DC0005A5A095B515A5B5B5B51085A08095A1100
:102DD000515A5A5A115A5A115A085A5A5A115A5A89
:102DE00059115A5A5A5A5B5AAFAF5E665E55030282
:102DF000AFAF5D540A0009525D5D010909095251E6
:102E00005A5A5A51521B64A35A5A5A5A5B645B5A13
:102E10005A6364635A635BA3635B5A5A5B635B5494
:102E20005B1A5A1A5B63AC5B5200000000005152FF
:102E300052085AA2A3A3A3525AA351A3515AA3A31F
:102E4000515AA35BA3A35151A251A3A3F5AD5B5A61
:102E5000515AA3ACF5F5ADAC4C545BA4ACF5ADF553
:102E60005B5B63ACACADF5AD0201000000115A63D1
:102E700051525251A35B5B64A39A515151646364F4
:102E80000900000009AD64AC5A5B5A085A64AC5B97
:102E9000ACACADAD64AD645BACADACAD63AC646427
:102EA000ACF5F5AD6463AC64646463ADACADADAD7D
:102EB00064ACADADAD645C6464AD64AC645B631A7A
:102EC00064AD5B1A1A221A235A622322631A6B1A00
:102ED00011111911191A1922645A08000008111A3F
:102EE00064AC645A510808125C64ADA3A35A5A5CDE
:102EF000A4A35B51115A5A5C5AA35A5A5A5A5B5CA2
:102F000063F5A4A4AC5B5B5C23236C1A6C63AD5CBF
:102F10006B1A226B2323635C621A231A22236C64CC
:102F20005922221A6323645C65AD5C5B635B5A5B68
:102F30005C65AD5B5BAC5B5B5C64645A635AAC5BC9
:102F4000AEAD645B5B5BAC5B65ADAD5A635B5B5B1D
:102F50005CAD645AAC5A5B5B65AEAC5B5B5A5B5C68
:102F600065ADADAC5A5A5A5C5B645B5A5AA3A35A1E
:102F70005C5C5B5A5A5AA35B5B5CA45A5A5AA3AC7A
:102F80005CAE5A5A5A5AA3AC5C5C5B5A5A5AACA310
:102F9000655CA35A5A5AACA35C5CA45A5AAB5A5A01
:102FA00065AD525A5AABACACA35BA3A3A3A35AA280
:102FB000A3A3A35BA3A3A35AA3A4A3ACA3ACA3AC56
:102FC000A3ACA3ACA3A3A35AACA3ACA3ACACA3ABDC
:102FD000ACA3ACACA3ACA3ACA2ACA3ACA3ACACA371
:102FE0005AA3A2ACA3ACA3ACA3A251A3A351519AE0
:102FF000A35AA25A51A3A351A3A3A35AA252A39A7C
:10300000A35AA3A351A35152A3A3A3A3A3A3A3521F
:10301000ACA35AA351A35199ACA3A3A3A3A3A351B7
:10302000A3ACA3A35AA351A39BA3A3A3A3ECF5EC26
:10303000A39BA3EDF5EDF5A4A3A3A3A3F5A4F5F538
:103040009AA39BECA4ECF5A39A52A3A3ECA3A4F53A
:10305000529A52A3A4A3ECA351519952A3A3A3A3A0
:1030600052519A51525A5A5AF5F5F5A3F5A3F5A3C0
:10307000ECA3F5F5A3F5A3F5F5A3F5A4F5A3F5A346
:10308000F5A4F5A3F5A3F5A3A3A3F5A3F5A4F5A3D0
:10309000A3A3A3A3A3F5A3ECABA3ACA3A3A3A3A354
:1030A000A35AA3A2ACA3A3F5A3515A59505A5059FD
:1030B000000000090009520900000001090A131369
:1030C0000000090A135C65AE00000913AEAE25B717
:1030D000000112AEB61D65FF00015CAD1D66FFAEBE
:1030E00000095C651C65F6B75A5AA3A35AAB5AA3EC
:1030F000000909005200000013130A0A0900000029
:10310000AEFF651309010900AE6EF6AE130A0901A0
:103110006E26FFAE1313130A2665F6B61D1CAE65A8
:1031200026B7F626AEFFAEAEAB635B635A635A5268
:1031300051000900520000000000000000000000E3
:103140000000000000000000090109000909010950
:10315000090A0A0A090A0A0A13135C1313131C65E5
:103160001C65FF651CADFF655A0051515A5A5A5AE9
:10317000000000000000000000000000000000004F
:103180000000000000000000090109090909090107
:103190000A0A0A0A0A0A0A0A1C131C651C1C13657F
:1031A00065B7F765F6AE25F65A5A5A12635A636444
:1031B00009000900000051000000000000000000AC
:1031C00000000000000000000909090901090A09BE
:1031D0000A0A0A0A0A0A0A0A1C1C65131C1C1C1C7F
:1031E0006EFFF61DFFF6F6B75A125A635A63ACA388
:1031F00051000909090A09000000000A090A090921
:1032000000090A5CAE5C0A0001090A65F6AD0A0A0B
:10321000131313ADFF651313131C66FFAE1D1C1CA7
:1032200065FF66F6B766FFAE5B5A5BACACACACACA8
:1032300000520009000052000000000000000000E1
:1032400000000000000000000A090901090109004E
:103250000A0A0A130A0A090165131C1C1C5C1309DB
:10326000B765F6B7AEF65C0AADADF5AC5BAD5AAC82
:103270005100520009005200000000000000000050
:10328000000000000000000000000000000000003E
:10329000000000000000000000000000000000002E
:1032A00000000000000000005BAC5BAC5B515A11F9
:1032B0000051000952000009000000000000000059
:1032C00000000000000000000000000000000000FE
:1032D00000000000000000000000000000000000EE
:1032E00000000000000000005A5A192322236C64D9
:1032F00000000900000900090000000000000000B3
:1033000000000000000000000000000000000000BD
:1033100000000000000000000000000000000000AD
:1033200000000000000000005CAE64AD5B5A515C20
:1033300052000900005200000000000000000000E0
:10334000000000000000000000000000000000007D
:10335000000000000000000000000000000000006D
:103360000000000000000000655C5AA3AC5AACAC41
:103370005200520051005100000000000000000007
:10338000000000000000000000000000000000003D
:10339000000000000000000000000000000000002D
:1033A0000000000000000000ACACACA3ABA3ACF587
:1033B0000009000052005100000000000000000061
:1033C00000000000000000000000000000000000FD
:1033D00000000000000000000000000000000000ED
:1033E0000000000000000000ACA3ACA3A3A3519A0E
:1033F000005200000000000000000000000000007B
:1034000000000000000000000000000000000000BC
:1034100000000000000000000000000000000000AC
:1034200000000000000000005151529A5151515AC1
:10343000000000000000000000000000000000008C
:10344000000000000000000000000000000000007C
:10345000000000000000000000000000000000006C
:1034600000000000000000005A5A5A5AA25AA3A3B2
:103470000051000052005100000000000000000058
:10348000000000000000000000000000000000003C
:10349000000000000000000000000000000000002C
:1034A000000000000000000000095C651CAEF6B7DB
:1034B000000164131DAEF6F600090A5C13FFF7FF66
:1034C0000000090A5CAE651D00000109120A131311
:1034D00000000000090109090000000000000000D0
:1034E0000000000000000000B7F66F6EFFB7FFB7E6
:1034F000B7261DAEF726FFB7F6B71DFFFF26AD6650
:10350000FFFFAE65AEAE1C140B131313131313138E
:103510000A090A090A090109000100000000000067
:10352000000000000000000066AEF61D6EF7FFFF11
:1035300026B6F66FAEF6AE6F65B7F626FFF6252611
:10354000AEB6656565AE65650A13131313131313E1
:103550000A090A0A0A090A0A000000000000000914
:10356000000000000000000066FFB7B7FF66B7F775
:10357000B7F66FB7FF6EFFB7AEFF6EFFB766F666C2
:1035800065B7AEF6AE6EAEB71C66FFFF65131313DC
:1035900013AEAE65130A0A0A0913130A0A090000DA
:1035A00000000000000000006FF6B726F6F7B7260F
:1035B0006EF66EB7F6FF6EB7FFF626B7F7651DAE6F
:1035C00065FF65AEAE1C136513131313130A0A13BC
:1035D0000A0A090A090900090000000000000000A9
:1035E0000000000000000000F6B76EF66E6EF7FFF8
:1035F000F7B7B7FF6FAEF6AEFF66FFAE26FFFF264A
:10360000AEB7AEAE6565AE650A131313131313138D
:103610000A090A090A01090A00000000090000015C
:103620000000000000000000B7B7F6B7FFF61C0A64
:103630006FFFF66FF6FF130A26F6FF6EF6651C0A9B
:1036400065AE651DAEAE650913130A1313130A099F
:1036500009090A0901090109000000000000000031
:103660000000000000000000090000000000000051
:103670000000000000000000090000000000000041
:103680000100000000000000000000000000000039
:10369000000000000000000000000000000000002A
:1036A00000000000000000001E1C000000000000E0
:1036B000000000000000000000000000000000000A
:1036C00000000000000000000000000000000000FA
:1036D00000000000000000000000000000000000EA
:1036E00000000000000000000000000000000000DA
:1036F00000000000000000000000000000000000CA
:1037000000000000000000000000000000000000B9
:1037100000000000000000000000000000000000A9
:103720000000000000000000000000000000000099
:103730000000000000000000000000000000000089
:103740000000000000000000000000000000000079
:103750000000000000000000000000000000000069
:103760000000000000000000000000000000000059
:103770000000000000000000000000000000000049
:103780000000000102030405060708090A0B0C0DDE
:103790000E0E0E00000000000000000000000000FF
:1037A000000F101112131415161718191A1B1C1DCF
:1037B0001E00000000000000000000000000001FCC
:1037C000202122232425262728292A2B2C2D2E00B0
:1037D000000000000000000000000000002F303159
:1037E00032333435363738393A3B3C3D3E00000001
:1037F00000000000000000000000003F4041424384
:103800004445464748494A4B4C4D4E000000000095
:103810000000000000000000004F5051525354556A
:10382000565758595A5B5C5D5E000000000000006E
:10383000000000000000005F60616263646566670D
:1038400068696A6B6C6D6E0000000000000000008B
:1038500000000000006F707172737475767778796C
:103860007A7B7C7D7E0000000000000000000000EC
:103870000000007F808182838485868788898A8B87
:103880008C8D8E0000000000000000000000000091
:10389000008F909192939495969798999A9B9C9D5E
:1038A0009E00000000000000000000000000009FDB
:1038B000A0A1A2A3A4A5A6A7A8A9AAABACADAE003F
:1038C00000000000000000000000000000AFB0B1E8
:1038D000B2B3B4B5B6B7B8B9BABBBCBDBE00000090
:1038E0000000000000000000000000BFC0C1C2C313
:1038F000C4C5C6C7C8C9CACBCCCDCE000000000025
:10390000000000000000000000CFD0D1D2D3D4D5F9
:10391000D6000000000000000000000000000000D1
:103920000000000000000000000000000000000097
:103930000000000000000000000000000000000087
:103940000000000000000000000000000000000077
:103950000000000000000000000000000000000067
:103960000000000000000000000000000000000057
:103970000000000000000000000000000000000047
:103980000000000000000000000000000000000037
:103990000000000000000000000000000000000027
:1039A0000000000000000000000000000000000017
:1039B0000000000000000000000000000000000007
:1039C00000000000000000000000000000000000F7
:1039D00000000000000000000000000000000000E7
:1039E00000000000000000000000000000000000D7
:1039F000000000FF06015300C00000B00764009003
:103A0000486400C10100B107640091606400B3071D
:103A100064009303640A916000009160640B9160FC
:103A200000009160640B9048000090486400916031
:103A300000009160640A916000009160640B9160E5
:103A400000009160640B90480000904F640091600A
:103A50000000916764009304640A91670000916715
:103A6000640B916700009167640B904F0000904FCA
:103A70006400916700009167640A91670000916794
:103A8000640B916700009167640B904F00009051A8
:103A9000640091670000916964009303640A91696E
:103AA00000009169640B916900009169640B905169
:103AB000000090516400916900009169640A916965
:103AC00000009169640B916900009169640B905149
:103AD0000000904F640091690000916764009304B6
:103AE00064209167000091676420904F0000904D22
:103AF000640091670000916564009303640A916516
:103B000000009165640B916500009165640B904D18
:103B10000000904D6400916500009165640A916514
:103B200000009165640B916500009165640B904DF8
:103B30000000904C6400916500009164640093045F
:103B4000640A916400009164640B916400009164C4
:103B5000640B904C0000904C6400916400009164F0
:103B6000640A916400009164640B916400009164A4
:103B7000640B904C0000904A6400916400009162D4
:103B800064009303640A916200009162640B916285
:103B900000009162640B904A0000904A64009162B8
:103BA00000009162640A916200009162640B91626C
:103BB00000009162640B904A00009048640091629A
:103BC00000009160640093046420916000009160A3
:103BD000642090480000904F64009160000091675D
:103BE00064009303640A916700009167640B916716
:103BF00000009167640B904F0000904F6400916744
:103C000000009167640A916700009167640B9167F7
:103C100000009167640B904F0000904D6400916725
:103C20000000916564009304640A91650000916549
:103C3000640B916500009165640B904D0000904D00
:103C40006400916500009165640A916500009165CA
:103C5000640B916500009165640B904D0000904CE1
:103C6000640091650000916464009303640A9164A8
:103C700000009164640B916400009164640B904CAB
:103C80000000904C6400916400009164640A9164A7
:103C900000009164640B916400009164640B904C8B
:103CA0000000904A640091640000916264009304F3
:103CB00064209162000091626420904A0000904F5D
:103CC000640091620000916764009303640A916745
:103CD00000009167640B916700009167640B904F3F
:103CE0000000904F6400916700009167640A91673B
:103CF00000009167640B916700009167640B904F1F
:103D00000000904D64009167000091656400930489
:103D1000640A916500009165640B916500009165EE
:103D2000640B904D0000904D64009165000091651A
:103D3000640A916500009165640B916500009165CE
:103D4000640B904D0000904C6400916500009164FC
:103D500064009303640A916400009164640B9164AD
:103D600000009164640B904C0000904C64009164DE
:103D700000009164640A916400009164640B916492
:103D800000009164640B904C0000904A64009164C0
:103D900000009162640093046420916200009162CB
:103DA0006420904A00009048640091620000916095
:103DB00064009303640A916000009160640B916059
:103DC00000009160640B904800009048640091608E
:103DD00000009160640A916000009160640B916042
:103DE00000009160640B90480000904F6400916067
:103DF0000000916764009304640A91670000916772
:103E0000640B916700009167640B904F0000904F26
:103E10006400916700009167640A916700009167F0
:103E2000640B916700009167640B904F0000905104
:103E3000640091670000916964009303640A9169CA
:103E400000009169640B916900009169640B9051C5
:103E5000000090516400916900009169640A9169C1
:103E600000009169640B916900009169640B9051A5
:103E70000000904F64009169000091676400930412
:103E800064209167000091676420904F0000904D7E
:103E9000640091670000916564009303640A916572
:103EA00000009165640B916500009165640B904D75
:103EB0000000904D6400916500009165640A916571
:103EC00000009165640B916500009165640B904D55
:103ED0000000904C640091650000916464009304BC
:103EE000640A916400009164640B91640000916421
:103EF000640B904C0000904C64009164000091644D
:103F0000640A916400009164640B91640000916400
:103F1000640B904C0000904A640091640000916230
:103F200064009303640A916200009162640B9162E1
:103F300000009162640B904A0000904A6400916214
:103F400000009162640A916200009162640B9162C8
:103F500000009162640B904A0000904864009162F6
:103F600000009160640093046420916000009160FF
:103F70006420904800009160000093036440930423
:103F800064409303644093046440FF06014500FFCE
:103F90002F00000000004000000000000000F23F81
:103FA00000000000000000EA3F00000000010000E7
:103FB000D63F00000000010000BF3F0000000000ED
:103FC00001020007220000FF0101010101020201BC
:103FD000010500FE40FF00011200072E0000FC0159
:103FE00001170101120100F400FF0002090000F1B5
:103FF00000FF00020900071E0000F10400F900FFA5
:1040000000020800070A0100140500F700FF112450
:104010001FBECFEFD0E1DEBFCDBF11E0A0E0B1E029
:10402000E8E6F2E602C005900D92A230B107D9F79A
:1040300025E0A2E0B1E001C01D92AD38B207E1F782
:1040400014BE0FB6F894A8958091600088618093A3
:104050006000109260000FBE0E946525811102C0B1
:104060000E944325F89481E08093F6048093F7043E
:104070008093F5041092E2041092E8041092EE048A
:104080001092F4041092FA041092C0041092C20428
:1040900092E19093C10490EE9093C80494E19093C0
:1040A000C7041092CC041092CB041092D00410924A
:1040B000CF048093E1040E94583080E790E0FC0137
:1040C00025913491F901FF273083029620E08E3943
:1040D0009207A9F778940E9457300E94EF300C9411
:1040E00032310C94000003E80A95F1F700C000910A
:1040F000B004ECEAF4E023E0029FE00DF11D209112
:10410000AF043CE3321B300F201751F000000000D9
:10411000A191B1911C9111930C9303950217C0F3D7
:1041200013E01A95F1F700C03A95D1F7C0E2D1E05B
:10413000662717E01A95F1F700C04091BE04509130
:10414000BF046090BA047090BB04D3015E01762F67
:1041500000C03091BD04303009F0C8E609F0D4E069
:1041600009F0DA0115E01A95F1F78090C80407E02C
:104170000093360001E00093810001E000936F009E
:1041800008E0609F8D0100541040000D111D1801C2
:104190000CE614E0000D111D280100E4E02E03E3FD
:1041A0001AEFCF93DF93599100C000C01FD324E0D2
:1041B0002A95F1F70000109385000093840078940D
:1041C00000275E9D5130F10108F4F201001FE00D5F
:1041D000F11D1AE01A95F1F70000112700FF02C047
:1041E000000065C048C018B90F900F90DF91CF91C3
:1041F00003E00A95F1F700C063958A94B1F0683046
:1042000029F007E00A95F1F700C0BACF66276E964D
:104210000491049100C03A9509F4672F09F4E5016F
:1042200000C000C009F4D301ABCF20E12A95F1F71B
:1042300000E0009385000CE200938400D7D21124A3
:104240000E949C22E091C20442E0E160E427E093F6
:10425000C20407E00093360009E00093810002E009
:1042600000936F000895059108B9020C00000591B4
:1042700008B9131CF001059108B900C0059108B9EF
:104280004991059108B900C0059108B94E9D059165
:1042900008B941300000059108B928F700000591E0
:1042A00008B9040C0000059108B9151CF0010000C4
:1042B000019108B949910000019108B900004E9D93
:1042C000019108B90491019108B90491019108B9CB
:1042D000413000C0019108B950F40000040C019174
:1042E00008B9151C00000191F00108B9E0CF020CDB
:1042F000019108B9131C00000191F00108B9BBCF6E
:1043000020E4E091BA04F091BB04829FE00DF11D1E
:10431000ACE6B4E0629FA00DB11D15901D92159002
:104320001D9215901D9215901D9215901D9215903D
:104330001D9215901D9215901D9215901D9215902D
:104340001D9215901D9215901D9215901D9215901D
:104350001D9215901D9215901D9215901D9215900D
:104360001D9215901D9215901D9215901D921590FD
:104370001D9215901D9215901D9215901D921590ED
:104380001D9215901D9215901D9215901D921590DD
:104390001D9215901D9215901D9215901D921590CD
:1043A0001D9215901D9215901D9215901D921590BD
:1043B0001D9215901D9215901D9215901D921590AD
:1043C0001D9215901D9215901D9215901D9215909D
:1043D0001D9215901D9215901D9215901D9215908D
:1043E0001D9215901D9215901D9215901D9215907D
:1043F0001D9215901D9215901D9215901D9215906D
:104400001D9215901D9215901D9215901D9215905C
:104410001D9215901D9215901D921124089520E46F
:10442000ECE6F4E0829FE00DF11DACE6B4E0629FA3
:10443000A00DB11D11901D9211901D9211901D9211
:1044400011901D9211901D9211901D9211901D922C
:1044500011901D9211901D9211901D9211901D921C
:1044600011901D9211901D9211901D9211901D920C
:1044700011901D9211901D9211901D9211901D92FC
:1044800011901D9211901D9211901D9211901D92EC
:1044900011901D9211901D9211901D9211901D92DC
:1044A00011901D9211901D9211901D9211901D92CC
:1044B00011901D9211901D9211901D9211901D92BC
:1044C00011901D9211901D9211901D9211901D92AC
:1044D00011901D9211901D9211901D9211901D929C
:1044E00011901D9211901D9211901D9211901D928C
:1044F00011901D9211901D9211901D9211901D927C
:1045000011901D9211901D9211901D9211901D926B
:1045100011901D9211901D9211901D9211901D925B
:1045200011901D9211901D9211901D9211901D924B
:1045300011901D9211240895E091B0048E2FEE0F7A
:10454000E80FFF27E455FB4F0090AF04801930F4CB
:10455000A191B19101900C928395D1F7089598E0C3
:10456000799FA12DBB27AE54BB4FED91FD9190E4F7
:10457000699FE00DF11D899FD001A459BB4F90E0C8
:1045800040FD09C0822F48E0421B70FF0AC0179609
:10459000E80FF91F08C088E0821B422F70FFF8CF98
:1045A0001197A20FB91F68E028E0231B50FD09C036
:1045B000639FA00DB11D71FDE85C71FDFF4F122ED0
:1045C00008C0132E1A9471FF122E619DE00DF11D8B
:1045D000132E71FD409770FD05C057EF540F70E02A
:1045E00061E004C059EF541B7FEF6FEF3EEF042EE4
:1045F000469530F461F0259123132C93A60FB71F35
:10460000259123132C93A60FB71F4150A1F7259195
:1046100023132C931A9449F0E80FF91FA51BBF4FE1
:10462000402D469568F739F7F2CF08950F921F9203
:10463000EF93FF93FFB7E0918400FF93E2FD04C086
:10464000E1FD02C0000000C0E0FF00C0E091C10435
:10465000EA95E093C104F091C004F0FD51C0EC3044
:1046600098F0F3E0F0938900FDE8F0938800E0FB18
:10467000289826F4E1E00E940724B1C0E5E1EA951C
:10468000F1F70000289AABC0E63008F100C000C086
:104690002898E0FBE4E016F40E940724E4E0E093AD
:1046A0003600E6E0E0936F009AC0EF93E09184005B
:1046B000E2FD04C0E1FD02C0000000C0E0FF00C058
:1046C000E2E00000289AE0936F00EF91189500C097
:1046D000E0FB289826F4E1E00E94072405C0E5E10C
:1046E000EA95F1F70000289AE091C104E03009F062
:1046F00076C0EDEFE093C104E1E0E093C0046FC049
:10470000E7E0E0938900EBE1E093880000C028989F
:10471000E2E000C00E940724FDEF0090C704F019FA
:10472000E091C104EF17D0F4FDEF0090C704F01939
:104730000090C804F019EF1788F0EDE1FF27008022
:104740000F92EA95E1F706E00A95F1F70E947320CF
:10475000E1E0FF270F900192EE31E0F3E091C10418
:10476000E03009F03CC02F933F934F935F936F93DA
:104770007F938F939F93AF93BF9378941124EE27E9
:10478000E093C004E2E1E093C1048091D1049091F0
:10479000D20401968093D1049093D204E091C30493
:1047A000F091C404E115F10509F009950E94332543
:1047B0000E94EB300E9401241124E091C504F09185
:1047C000C604E115F10509F00995BF91AF919F91DC
:1047D0008F917F916F915F914F913F912F91EF91C9
:1047E000EFBFFF91EF911F900F9018952898E2E08E
:1047F00000C00E940724E091C104EA95E093C1043F
:104800000895E091E104E0FD0E94582708950F9378
:104810001F932F93CF93DF932E2F0091E3041091DA
:10482000E504100F0091E404E091E604F091E70440
:10483000E01F0491E093E6041093E5041091E20474
:1048400001030008C12DD02D00000091E904109152
:10485000EB04100F0091EA04E091EC04F091ED04F8
:10486000E01F0491E093EC041093EB041091E80432
:1048700020FD289A20FF00C0010300240008C10D7C
:10488000D01D0091EF041091F104100F0091F0047D
:10489000E091F204F091F304E01F0491E093F2043C
:1048A0001093F1041091EE0401030008C10DD01D16
:1048B0000091F6041091F704E091F804EA9592F45F
:1048C000F091F504EF2FE695002E0694002600FAED
:1048D0001695079516F9F0FF06F90093F604109364
:1048E000F70403C016E01A95F1F7E093F80410E816
:1048F00021FD289A21FF00C000FD1FE70091F4046C
:1049000010030008C10DD01D0091FD041091FB049F
:10491000010F0093FD04E091FE041091FC04E11FDF
:10492000F091FF0400E0F01F8F010090000510904F
:104930000105001911090090020510900305E0150A
:10494000F10508F0F801E093FE04F093FF040491F0
:104950001091FA0401030008C10DD01D0024C038D5
:10496000D0050CF0CFE70A94C038D0050CF4C0E8AD
:10497000C058C093B300DF91CF912F911F910F9139
:104980000895992777272EE1629F080E191EA0E24D
:10499000B1E0A00DB11D4F5F4C9311240895809399
:1049A000BA049093BB0408958091C2048170089565
:1049B0002091C2042E7F2093C2040895E0E6F0E027
:1049C000808183FD089588E198E0F8948083908346
:1049D0007894FFCFF999FECF92BD81BD60BDF89468
:1049E000FA9AF99A78940895F999FECF92BD81BD0B
:1049F000F894F89A80B578940895129AC895C89555
:104A0000C895C895129840E180E090E020E030E041
:104A10003695279596958795C895C895C895C89554
:104A20001398009B3068019B9068139AC895C895AD
:104A3000C895C895415061F73093CA042093C904C2
:104A40009093CE048093CD048091C9049091CA04C0
:104A50000F9731F08091CD049091CE040F9711F40F
:104A60000C94DE24089510920405009903C081E09F
:104A700080930405019905C08091040582608093AC
:104A800004050C94FD24CF93DF93C0E0D0E0FE0139
:104A9000E256FF4F6491CE010E94EA242196C03273
:104AA000D105A9F7C0E2D0E0CE016FEF0E94EA2461
:104AB000CE0101966FEF0E94EA24A096C11588E00E
:104AC000D80791F7DF91CF910895CF9380E090E0E0
:104AD0000E94F424C82F81E090E00E94F424282F43
:104AE00030E0322F22272C0F311D81E02A35354549
:104AF00009F080E0CF910895FC0167870895E2EE08
:104B0000F4E081E091E0958B848B638B0895FC0148
:104B100090819F7590830895FC01908190649083AB
:104B20000895FC0166870895FC0162870895FC01E1
:104B300063870895CF93DF93EC01462F298130E0FE
:104B4000F901EE0FFF1FE05BFC4A65917491F901DA
:104B5000E40FF11D47FDFA95EE0FFF1FE05BFC4AE5
:104B600085919491861B970B688570E00E941E3199
:104B70006115710511F461E070E0EA8186E0E89F5B
:104B8000F0011124EE51FB4F81819281860F971F16
:104B9000928381837E836D83888188608883898105
:104BA000480F4F83DF91CF910895FC0160870895EE
:104BB000FC0164830895FC0182810C948B29FC0123
:104BC0009181690F618382810C947429FC01918128
:104BD000961B692F918382810C9474291F93CF9324
:104BE000DF93EC01162F8A810E9474291983888132
:104BF000877F8883DF91CF911F910895CF93DF93B3
:104C0000EC018C818823F1F02D893E89662379F0AF
:104C1000062E000C770B6F5F7F4FAB01440F551FC3
:104C2000640F751F261B370B09C0EF3F39F0235067
:104C30003109F9013297E491ED30B9F73E8B2D8BB4
:104C400081508C83DF91CF91089590937D0580935F
:104C50007C058FE680937F051092E004E7E1F5E0A4
:104C600080E090E13FEF28E1DF011E978C931297DF
:104C70009C931D961C9211973C93108211972C9334
:104C800013979C938F5F7796853071F70895E7E0CF
:104C9000F5E03FEF20812F7720833383779625E05F
:104CA000EA37F207B9F7019690938405809383055C
:104CB000909306058093050590938605809385055E
:104CC000109281051092800510927B0510927A0552
:104CD0001092820510927E0581E08093E004089591
:104CE000DC01ED91FC9111979F012F5F3F4F1196D1
:104CF0003C932E93E491E7FD03C08E2F90E008953E
:104D0000EF778E2F90E09695982F88279795879527
:104D10002F5F3F4FF9013197E4914E2F4F77840F6A
:104D2000911DE7FDF0CF2D933C930895FF920F93D3
:104D30001F93CF93DF93EC01162F022F8881F82E5B
:104D4000FF1CFF24FF1C1F869FEF9E874D871C8A38
:104D5000877B88831A86198629831C829B838A8194
:104D6000833069F4F11001C0122F81E091E090933B
:104D7000F7048093F60481E08093F50436C0843014
:104D800069F51092FD0480917C0590917D0529E0E4
:104D9000629F800D911D1124FC0131962591349163
:104DA0003093FF042093FE04AC01495F5F4FFA018A
:104DB000659174910596FC0185919491681B790B1E
:104DC0007093010560930005FA0185919491280F75
:104DD000391F309303052093020503C060E00E9451
:104DE0008B298A81602F0E947429FF2011F0198B72
:104DF00001C0188BE0917C05F0917D0589E0189F3A
:104E0000E00DF11D1124339685919491009719F4CA
:104E10001E8A1D8A07C01B8AFC0124912A8B0196D9
:104E20009E8B8D8BDF91CF911F910F91FF900895F5
:104E3000CF93DF93A82FB0E097E1899FF001112471
:104E4000E95FFA4F808185FF02C087FD2EC02111E6
:104E500018C097E19A9FF0019B9FF00D1124E95F24
:104E6000FA4F9785911102C086FF158697E19A9FA8
:104E7000F0019B9FF00D1124E95FFA4F8F7B808337
:104E800014C0322F242F87E18A9FE0018B9FD00D21
:104E90001124C95FDA4F18821E8A1D8ACE01432F62
:104EA0000E949626888180628883DF91CF91089541
:104EB0006F927F928F929F92AF92BF92CF92DF922A
:104EC000EF92FF920F931F93CF93DF93C7E0D5E04C
:104ED00082EEA82E84E0B82E9501DE0140E050E07D
:104EE000CA01895F9A4F7C01FC018785882391F074
:104EF0006685082E000C990B860F911D8F3F91053A
:104F000019F014F08FEF90E097FF02C080E090E07E
:104F1000F70186871C9113FF25C0FD01658176810D
:104F2000F90181819281860F971F92838183F70116
:104F30000781E02FF0E0EE0FFF1FE05BFC4AE590F9
:104F4000F4901616170624F48E159F0530F40AC047
:104F5000672B41F0E816F90628F0F901F282E182A8
:104F6000177F1C93495E5F4F57962A5F3F4F433729
:104F7000510509F0B5CF8091E004882309F4CFC032
:104F800017E180917A0590917B0520918005309101
:104F900081058217930709F0BDC0209183053091E8
:104FA0008405B9016F5F7F4F70938405609383051B
:104FB000F90144914F3F79F5A9014E5F5F4F50933E
:104FC000840540938305FB0164916F3219F41092BC
:104FD000E004A0C0663009F090C0FA014491C90114
:104FE00004969093840580938305F9013396E491A8
:104FF000E33529F490938605809385057EC0E534DA
:1050000009F07BC080918505909186059093840579
:105010008093830572C047FD40937E0590917E0585
:10502000892F8F7047FF08C02E5F3F4F3093840554
:1050300020938305FB014491907F903BE1F0903CED
:1050400009F455C0903909F058C0E0918305F091FA
:1050500084059F012F5F3F4F309384052093830584
:105060002491189FF0011124E95FFA4F220F608903
:105070000E94182742C0E0918305F09184059F01AA
:105080002F5F3F4F3093840520938305E491473091
:1050900051F4189FC0011124895F9A4F2E2F220FBF
:1050A000FC0124872AC04B3051F4189FC001112401
:1050B000895F9A4F2E2F220FFC0123831EC04C358F
:1050C00051F4189FC0011124895F9A4F2E2F220F8F
:1050D000FC01228712C0443681F4189FC0011124BC
:1050E000895F9A4F2E2F220FFC01238706C0189F3D
:1050F000F0011124E95FFA4F408B83E895E00E94AC
:105100007026909381058093800510927B05109204
:105110007A0537CF019690937B0580937A0590E1CD
:10512000C92E95E0D92E2AE1E22E25E0F22E0BE1E0
:1051300015E066246A94712C888185FF42C02D8910
:105140003E89232B09F43DC086FD3BC04801F2E0B7
:105150008F1A9108D7019C91F401808198132EC079
:10516000ED89FE89BF016F5F7F4F7E8B6D8B8491D0
:105170008F3F31F488818F7788831E8A1D8A1EC0F5
:105180009F012E5F3F4F3E8B2D8BFB016491E82FDB
:10519000F0E0EE0FFF1FE254FF4F25913491CE0156
:1051A000F9010995ED89FE89CF0101969E8B8D8BC2
:1051B000E491D401EC93F7011082CCCF9F5FD7012B
:1051C0009C93988195FF6CC0F80180818F3F11F00E
:1051D0008F5F808397FD04C0F8013897908101C0EC
:1051E0009FEFF80137978081882309F44EC03196EC
:1051F0005081552309F449C0992309F446C04091D0
:105200007F05442309F441C0899FC001112493956F
:10521000892F9927589F9001599F300D1124C9015A
:105220009395892F99273B975081589F9001599FBB
:10523000300D11243395232F3327429FC001439F04
:10524000900D11249395892F992737962081222339
:10525000F1F0D601EC91F0E0E050FB4AE491E05827
:105260002E9FF0011124F395EF2FFF27A3014E1B72
:105270005F0B489F9001499F300D589F300D1124BE
:10528000C9019395892F992702C080E090E0F6012B
:105290003081F80139972081230FD6012C9302C069
:1052A00080E090E0F50180836796F6E0AF0EB11CD8
:1052B00087E1C80ED11C97E1E90EF11C095E1F4F72
:1052C000A5E0CA37DA0709F037CFDF91CF911F91F8
:1052D0000F91FF90EF90DF90CF90BF90AF909F9095
:1052E0008F907F906F90089599277727833009F4E6
:1052F0000895E0E5F3E5660F771FE60FF71FA59128
:10530000B491E2EEF4E026E0289FE00DF11DA183C8
:10531000B2831124089599277727E2EEF4E026E07E
:10532000289FE00DF11D6E3F31F46091F5046E7F12
:105330006093F5040BC06F3F31F46091F5046E6F1C
:105340006093F50403C075E5760F75831124089505
:1053500022002400260028002B002D0030003300FE
:10536000360039003D004000440048004C00510028
:1053700056005B00600066006C00730079008100DD
:10538000880090009900A200AC00B600C100CC00DB
:10539000D800E500F30001011001210132014401B0
:1053A00057016C0181019801B001CA01E5010202B7
:1053B0002102410264028802AE02D70203033003D5
:1053C00061039403CB03050442048304C70410055E
:1053D0005D05AF0505066106C2062907960709089F
:1053E000830805098E09200ABA0A5D0B0A0CC10C54
:1053F000840D510E2B0F121007110A121D134014A9
:105400007415BA1614188319071BA31C571E2420E1
:105410000E22142439267F28E82A752D29300633D8
:105420000F364539AD3C49401B442848734CFE506B
:10543000CF55EA5A51600C661D6C8B725A79928076
:1054400037885090E598FDA19FABD3B5A3C000006D
:10545000000000000000000000000000000000004C
:10546000000000000000000000000000000000003C
:10547000000000000000000000000000000000002C
:10548000000000000000000000000000000000001C
:10549000000000000000000000000000000000000C
:1054A00000000000000000000000000000000000FC
:1054B00000000000000000000000000000000000EC
:1054C00000000000000000000000000000000000DC
:1054D00000000000000000000000000000000000CC
:1054E00000000000000000000000000000000000BC
:1054F00000000000000000000000000000000000AC
:10550000000306090C101316191C1F2225282B2E28
:10551000313336393C3F414447494C4E515355583D
:105520005A5C5E60626466686A6B6D6F70717374FA
:10553000757678797A7A7B7C7D7D7E7E7E7F7F7FB3
:105540007F7F7F7F7E7E7E7D7D7C7B7A7A79787699
:1055500075747371706F6D6B6A68666462605E5CAF
:105560005A585553514E4C494744413F3C393633C4
:10557000312E2B2825221F1C191613100C09060387
:1055800000FDFAF7F4F0EDEAE7E4E1DEDBD8D5D28E
:10559000CFCDCAC7C4C1BFBCB9B7B4B2AFADABA859
:1055A000A6A4A2A09E9C9A9896959391908F8D8C7C
:1055B0008B8A8887868685848383828282818181A3
:1055C0008181818182828283838485868687888A9D
:1055D0008B8C8D8F9091939596989A9C9EA0A2A467
:1055E000A6A8ABADAFB2B4B7B9BCBFC1C4C7CACD32
:1055F000CFD2D5D8DBDEE1E4E7EAEDF0F4F7FAFD4F
:10560000808182838485868788898A8B8C8D8E8F22
:10561000909192939495969798999A9B9C9D9E9F12
:10562000A0A1A2A3A4A5A6A7A8A9AAABACADAEAF02
:10563000B0B1B2B3B4B5B6B7B8B9BABBBCBDBEBFF2
:10564000C0C1C2C3C4C5C6C7C8C9CACBCCCDCECFE2
:10565000D0D1D2D3D4D5D6D7D8D9DADBDCDDDEDFD2
:10566000E0E1E2E3E4E5E6E7E8E9EAEBECEDEEEFC2
:10567000F0F1F2F3F4F5F6F7F8F9FAFBFCFDFEFFB2
:10568000000102030405060708090A0B0C0D0E0FA2
:10569000101112131415161718191A1B1C1D1E1F92
:1056A000202122232425262728292A2B2C2D2E2F82
:1056B000303132333435363738393A3B3C3D3E3F72
:1056C000404142434445464748494A4B4C4D4E4F62
:1056D000505152535455565758595A5B5C5D5E5F52
:1056E000606162636465666768696A6B6C6D6E6F42
:1056F000707172737475767778797A7B7C7D7E7F32
:1057000000020406080A0C0E10121416181A1C1EA9
:1057100020222426282A2C2E30323436383A3C3E99
:1057200040424446484A4C4E50525456585A5C5E89
:1057300060626466686A6C6E70727476787A7C7E79
:105740007F7D7B79777573716F6D6B696765636159
:105750005F5D5B59575553514F4D4B494745434149
:105760003F3D3B39373533312F2D2B292725232139
:105770001F1D1B19171513110F0D0B090705030129
:10578000FFFDFBF9F7F5F3F1EFEDEBE9E7E5E3E119
:10579000DFDDDBD9D7D5D3D1CFCDCBC9C7C5C3C109
:1057A000BFBDBBB9B7B5B3B1AFADABA9A7A5A3A1F9
:1057B0009F9D9B99979593918F8D8B8987858381E9
:1057C00080828486888A8C8E90929496989A9C9EE9
:1057D000A0A2A4A6A8AAACAEB0B2B4B6B8BABCBED9
:1057E000C0C2C4C6C8CACCCED0D2D4D6D8DADCDEC9
:1057F000E0E2E4E6E8EAECEEF0F2F4F6F8FAFCFEB9
:105800007F7F7F7F7F7F7F7F7F7F7F7F7F7F7F7FA8
:105810007F7F7F7F7F7F7F7F7F7F7F7F7F7F7F7F98
:105820007F7F7F7F7F7F7F7F7F7F7F7F7F7F7F7F88
:105830007F7F7F7F7F7F7F7F7F7F7F7F7F7F7F7F78
:105B00000309131E28313A40464C5054585B5E61DD
:105B1000636567696B6C6E6F70717273747576779D
:105B2000777879797A7A7B7B7C7C7C7D7D7D7E7EC3
:105B30007E7E7F7F7F7F7F7F7F7F7F7F7F7F7F7F77
:105B40007F7F7F7F7F7F7F7F7F7F7F7F7F7E7E7E68
:105B50007E7D7D7D7C7C7C7B7B7A7A79797877779A
:105B6000767574737271706F6E6C6B696765636163
:105B70005E5B5854504C46403A31281E13090300CE
:105B8000C6CCD5DBDFE3E5E7E9EAEBECEDEEEFEFE2
:105B9000F0F0F0F1F1F1F1F2F2F2F2F2F2F2F2F3EE
:105BA000F3F3F3F3F3F3F3F3F3F3F3F3F3F3F3F3C5
:105BB000F3F3F3F3F3F3F3F3F3F3F3F3F3F3F3F3B5
:105BC000F3F3F3F3F3F3F3F3F3F3F3F3F3F3F3F3A5
:105BD000F3F3F3F3F3F3F3F3F3F3F3F3F3F3F3F395
:105BE000F2F2F2F2F2F2F2F2F1F1F1F1F0F0F0EFA2
:105BF000EFEEEDECEBEAE9E7E5E3DFDBD5CCC60061
:105C000000283D42302D2C2B2C2D2E2F30323335B9
:105C100037393B3D3F414345484A4C4E5053555719
:105C2000595B5D5F61636567696B6C6E70717374FE
:105C3000757778797A7B7C7D7D7E7E7F7F7F7F7FA5
:105C40007F7F7F7F7F7F7E7E7D7D7C7B7A7978778B
:105C500075747371706E6C6B69676563615F5D5BB2
:105C600059575553504E4C4A484543413F3D3B39A7
:105C700037353332302F2E2D2C2B2C2D30423D2812
:105C800000E9E5FED4D7D7D7D6D4D2D0CECCCAC877
:105C9000C6C3C1BFBDBAB8B6B4B1AFADABA9A7A5B5
:105CA000A3A19F9E9C9A999795949391908F8D8C88
:105CB0008B8A898888878685858484848383838387
:105CC0008383838383848484858586878888898A7F
:105CD0008B8C8D8F909193949597999A9C9E9FA170
:105CE000A3A5A7A9ABADAFB1B4B6B8BABDBFC1C388
:105CF000C6C8CACCCED0D2D4D6D7D7D7D4FEE5E941
:105D0000F9F8F9F5EBE1DDDEE0E2E4E5E6E5E4E211
:105D1000DED9D2CAC1B7ACA299918A86838180802C
:105D20008182838586888A8C8D8F909293959697B1
:105D300098999A9B9B9C9D9D9D9E9E9E9F9F9F9F99
:105D40009F9F9F9E9E9E9D9D9D9C9B9B9A99989791
:105D500096959392908F8D8C8A8886858382818098
:105D6000808183868A9199A2ACB7C1CAD2D9DEE27A
:105D7000E4E5E6E5E4E2E0DEDDE1EBF5F9F8F90083
:105D80000708070B151F2322201E1C1B1A1B1C1E95
:105D900022272E363F49545E676F767A7E7F7F7F5B
